PS D:\Projects\Debridge\debridge-contracts-v1> npx hardhat deploy  --network kovan
Nothing to compile
deploying "MockWeth" (tx: 0x7bc684c9e905360621d265719ae482c06825320202d31aed7ca0c19c30c6b00e)...: deployed at 0x21D03141aCfc7A53252c513F25C361485082Cc82 with 578769 gas
sleepInterval 15000
deploying "DeBridgeToken" (tx: 0x2cd7e5c329d37500a37ed577dba70bbd38a5327901549aff98362a8f897cccc2)...: deployed at 0x2C898393595386d889aF7F348314D8d63F4353Df with 1612378 gas
sleepInterval 15000

*** Deploying proxy for DeBridgeTokenDeployer ***
        Signer:  0x3B38786685c4Fd6bC3E685086fC7f086BC254864
        Args:  [
  '0x2C898393595386d889aF7F348314D8d63F4353Df',
  '0x24b8d26962641ea81cb7570c1b59d955c9193f23',
  '0x0000000000000000000000000000000000000000'
]
        reuseProxy:  true
        Found deployed proxies:  0
        No deployed proxies found, deploying a new one
sleepInterval 15000
        Implementation address: 0x49D0EE55d2Edf8B8EccDC4Bb83C2f79873A88D81
        New proxy deployed:  0x21c473DCbADf1b0Ea3cd3655511C71f74A4429F3
sleepInterval 15000

*** Deploying proxy for SignatureVerifier ***
        Signer:  0x3B38786685c4Fd6bC3E685086fC7f086BC254864
        Args:  [ 2, 3, 3, '0x0000000000000000000000000000000000000000' ]
        reuseProxy:  true
        Found deployed proxies:  0
        No deployed proxies found, deploying a new one
sleepInterval 15000
        Implementation address: 0x57Bc06611321cF3c5c332efb580FA4DEa8A0E105
        New proxy deployed:  0xe867E7269C733795445388cadD08cDcFe7FAe91a
sleepInterval 15000
add non required oracles:
[
  '0x0022798ad168952c1da80157c0314d5c64f87e22',
  '0x9b4cbd1c7e82cf9c217002eddb320a1286f47738',
  '0x2b4e172043527a9435f31688fef6f3589356d1aa'
]
sleepInterval 15000

*** Deploying proxy for CallProxy ***
        Signer:  0x3B38786685c4Fd6bC3E685086fC7f086BC254864
        Args:  [ 0 ]
        reuseProxy:  true
        Found deployed proxies:  0
        No deployed proxies found, deploying a new one
sleepInterval 15000
        Implementation address: 0x90Cb1CF7b9f261DA91A29FeD046C295ff56D18D7
        New proxy deployed:  0xEF3B092e84a2Dbdbaf507DeCF388f7f02eb43669
sleepInterval 15000

*** Deploying proxy for CallProxy ***
        Signer:  0x3B38786685c4Fd6bC3E685086fC7f086BC254864
        Args:  [ 2 ]
        reuseProxy:  true
        Found deployed proxies:  0
        No deployed proxies found, deploying a new one
sleepInterval 15000
        Implementation address: 0x90Cb1CF7b9f261DA91A29FeD046C295ff56D18D7
        New proxy deployed:  0x6a36E204576B8B72F9d301aD2ab23423f8f220A2
sleepInterval 15000

*** Deploying proxy for FeeProxy ***
        Signer:  0x3B38786685c4Fd6bC3E685086fC7f086BC254864
        Args:  [
  '0x5C69bEe701ef814a2B6a3EDD4B1652CB9cc5aA6f',
  '0x21D03141aCfc7A53252c513F25C361485082Cc82'
]
        reuseProxy:  true
        Found deployed proxies:  0
        No deployed proxies found, deploying a new one
sleepInterval 15000
        Implementation address: 0xa57ff684859D460C0B42ac0ed507561D686D21BE
        New proxy deployed:  0x3A7F21142Dd28be6369723100262282023e395ad
sleepInterval 15000
Start 08_DeBridgeGate
deployProxy DeBridgeGate

*** Deploying proxy for DeBridgeGate ***
        Signer:  0x3B38786685c4Fd6bC3E685086fC7f086BC254864
        Args:  [
  3,
  '0xe867E7269C733795445388cadD08cDcFe7FAe91a',
  '0x0000000000000000000000000000000000000000',
  '0xEF3B092e84a2Dbdbaf507DeCF388f7f02eb43669',
  '0x21D03141aCfc7A53252c513F25C361485082Cc82',
  '0x3A7F21142Dd28be6369723100262282023e395ad',
  '0x21c473DCbADf1b0Ea3cd3655511C71f74A4429F3',
  '0x0000000000000000000000000000000000000000'
]
        reuseProxy:  true
        Found deployed proxies:  0
        No deployed proxies found, deploying a new one
sleepInterval 15000
        Implementation address: 0xc59Afc2649d96aA6Ee2785047C754967FdB480CC
        New proxy deployed:  0x68D936Cb4723BdD38C488FD50514803f96789d2D
sleepInterval 15000
chainId: 42
wethDebridgeId: 0x5c068652b9614447d5c707fdb623ef686ab23491575b7c0b6556bc471ed74a49
updateChainSupport
[ 97, 256, 421611 ]
[
  { fixedNativeFee: '0', transferFeeBps: '0', isSupported: true },
  { fixedNativeFee: '0', transferFeeBps: '0', isSupported: true },
  { fixedNativeFee: '0', transferFeeBps: '0', isSupported: true }
]
sleepInterval 15000
deployInitParams.supportedChains:  [ 97, 256, 421611 ]
deployInitParams.fixedNativeFee:  [ '100000000000000', '100000000000000', '100000000000000' ]
deBridgeGate updateAssetFixedFeesTx for WETH
sleepInterval 15000
Set callProxy with sender for deBridgeGate
sleepInterval 15000
deBridgeGate updateGlobalFee
sleepInterval 15000
callProxy grantRole
callProxy grantRole DEBRIDGE_GATE_ROLE for deBridgeGate
sleepInterval 15000
callProxyWithSender grantRole DEBRIDGE_GATE_ROLE for deBridgeGate
sleepInterval 15000
feeProxy setDebridgeGate
sleepInterval 15000
deBridgeTokenDeployer setDebridgeAddress
sleepInterval 15000
signatureVerifier setDebridgeAddress
sleepInterval 15000
********************************************************************************
        Start transfering DEFAULT_ADMIN_ROLE role for contracts
        from DEPLOYER 0x3B38786685c4Fd6bC3E685086fC7f086BC254864
        to MULTISIG 0xB485C8ba37A258B57d3ef24E51178A6b307C96EB
********************************************************************************
Transfering admin role for DeBridgeTokenDeployer | 0x21c473DCbADf1b0Ea3cd3655511C71f74A4429F3
        call grantRole for multisig
sleepInterval 15000
        call revokeRole for deployer
sleepInterval 15000
Transfering admin role for SignatureVerifier | 0xe867E7269C733795445388cadD08cDcFe7FAe91a
        call grantRole for multisig
sleepInterval 15000
        call revokeRole for deployer
sleepInterval 15000
Transfering admin role for CallProxy | 0xEF3B092e84a2Dbdbaf507DeCF388f7f02eb43669
        call grantRole for multisig
sleepInterval 15000
        call revokeRole for deployer
sleepInterval 15000
Transfering admin role for CallProxyWithSender | 0x6a36E204576B8B72F9d301aD2ab23423f8f220A2
        call grantRole for multisig
sleepInterval 15000
        call revokeRole for deployer
sleepInterval 15000
Transfering admin role for FeeProxy | 0x3A7F21142Dd28be6369723100262282023e395ad
        call grantRole for multisig
sleepInterval 15000
        call revokeRole for deployer
sleepInterval 15000
Transfering admin role for DeBridgeGate | 0x68D936Cb4723BdD38C488FD50514803f96789d2D
        call grantRole for multisig
sleepInterval 15000
        call revokeRole for deployer
sleepInterval 15000
PS D:\Projects\Debridge\debridge-contracts-v1>



upgrade to 110 version


  deployTransaction: {
    hash: '0x0285c035fbdd3bfa4d5ae090ca975bec6444a78bc7bbc083cfe2aa5215a0e5b2',
    type: 0,
    accessList: null,
    blockHash: '0xc9fed41a8d7c1ccb932828373e519e5321c64348d096cea4dad33c3eb4933453',
    blockNumber: 28094970,
    transactionIndex: 1,
    confirmations: 1,
    from: '0x3B38786685c4Fd6bC3E685086fC7f086BC254864',
    gasPrice: BigNumber { _hex: '0xb2d05e00', _isBigNumber: true },
    gasLimit: BigNumber { _hex: '0x5a64f8', _isBigNumber: true },
    to: '0x968Fe2BFcc21ce899a06696bb9d2fAF002FF73c3',
    value: BigNumber { _hex: '0x00', _isBigNumber: true },
    nonce: 38,
    data: '0x99a88ec400000000000000000000000068d936cb4723bdd38c488fd50514803f96789d2d000000000000000000000000c22a5d1b0155113c2abbbf59ac71ef04e6d89a07',
    r: '0xb6f9d63167e30ce78afe1f4b72f95a58320e66d7cebfba0c38933363c005a14a',
    s: '0x51565a759e9880eb1030048f4bae7a1125bf1f864c8ebcfc40c2c5048fc7ae05',
    v: 119,
    creates: null,
    raw: '0xf8a92684b2d05e00835a64f894968fe2bfcc21ce899a06696bb9d2faf002ff73c380b84499a88ec400000000000000000000000068d936cb4723bdd38c488fd50514803f96789d2d000000000000000000000000c22a5d1b0155113c2abbbf59ac71ef04e6d89a0777a0b6f9d63167e30ce78afe1f4b72f95a58320e66d7cebfba0c38933363c005a14aa051565a759e9880eb1030048f4bae7a1125bf1f864c8ebcfc40c2c5048fc7ae05',
    chainId: 42,
    wait: [Function (anonymous)]
  },
  _deployedPromise: Promise { [Circular *1] }
}
newVersion: 110
PS D:\Projects\Debridge\debridge-contracts-v1>


PS D:\Projects\Debridge\debridge-contracts-v1> npx hardhat deploy --tags 12_set_new_weth  --network kovan
Nothing to compile
********************************************************************************
        Start upgrade deBridgeGate weth to new address {}
        from DEPLOYER 0xB485C8ba37A258B57d3ef24E51178A6b307C96EB
********************************************************************************
Waiting 1 block confirmations for tx 0x5eb4ca9873f72966c2d9c97acf21e93905275db005a1e18080cff4e4a55f0c2b ...
newWeth: 0xd0A1E359811322d97991E03f863a0C30C2cF029C
chainId: 42
wethDebridgeId: 0x9805a0d9ee98ce5dae28a1799074e6121c863794c241beefd9dc1b0b083018e9
Waiting 1 block confirmations for tx 0x9d3c8ff47a60e575236884794171ea9db39fa75fe4a170d3442d18f7791d1502 ...
updateAssetFixedFeesTx: 0x9d3c8ff47a60e575236884794171ea9db39fa75fe4a170d3442d18f7791d1502
updateChainSupport
[ 97, 256, 421611, 80001 ]
[
  { fixedNativeFee: '0', transferFeeBps: '0', isSupported: true },
  { fixedNativeFee: '0', transferFeeBps: '0', isSupported: true },
  { fixedNativeFee: '0', transferFeeBps: '0', isSupported: true }
]
Waiting 1 block confirmations for tx 0x0734a51a048d35f6444fe9c190bcf205cb8d2ee216153e709465ca395efef3b7 ...
An unexpected error occurred:

Error: ERROR processing D:\Projects\Debridge\debridge-contracts-v1\scripts\deploy\12_set_new_weth.js:
Error: transaction failed (transactionHash="0x0734a51a048d35f6444fe9c190bcf205cb8d2ee216153e709465ca395efef3b7", transaction={"hash":"0x0734a51a048d35f6444fe9c190bcf205cb8d2ee216153e709465ca395efef3b7","type":0,"accessList":null,"blockHash":null,"blockNumber":null,"transactionIndex":null,"confirmations":0,"from":"0xB485C8ba37A258B57d3ef24E51178A6b307C96EB","gasPrice":{"type":"BigNumber","hex":"0xb2d05e00"},"gasLimit":{"type":"BigNumber","hex":"0x5a6638"},"to":"0x68D936Cb4723BdD38C488FD50514803f96789d2D","value":{"type":"BigNumber","hex":"0x00"},"nonce":14,"data":"0x1ea61b3e000000000000000000000000000000000000000000000000000000000000004000000000000000000000000000000000000000000000000000000000000000e00000000000000000000000000000000000000000000000000000000000000004000000000000000000000000000000000000000000000000000000000000006100000000000000000000000000000000000000000000000000000000000001000000000000000000000000000000000000000000000000000000000000066eeb00000000000000000000000000000000000000000000000000000000000138810000000000000000000000000000000000000000000000000000000000000003000000000000000000000000000000000000000000000000000000000000000000000000000000000000000000000000000000000000000000000000000000010000000000000000000000000000000000000000000000000000000000000000000000000000000000000000000000000000000000000000000000000000000000000000000000000000000000000000000000000000000000000000000000010000000000000000000000000000000000000000000000000000000000000000000000000000000000000000000000000000000000000000000000000000000000000000000000000000000000000000000000000000000000000000000000010000000000000000000000000000000000000000000000000000000000000000","r":"0x76fe6289db36de2e23fe0529137181407a3e070e43b2cd0aac7d1186d68d5a50","s":"0x71d09e380f369100949febd834c3326fe2db4b71bc3c7283c72579553d936fa3","v":119,"creates":null,"raw":"0xf9028a0e84b2d05e00835a66389468d936cb4723bdd38c488fd50514803f96789d2d80b902241ea61b3e000000000000000000000000000000000000000000000000000000000000004000000000000000000000000000000000000000000000000000000000000000e00000000000000000000000000000000000000000000000000000000000000004000000000000000000000000000000000000000000000000000000000000006100000000000000000000000000000000000000000000000000000000000001000000000000000000000000000000000000000000000000000000000000066eeb0000000000000000000000000000000000000000000000000000000000013881000000000000000000000000000000000000000000000000000000000000000300000000000000000000000000000000000000000000000000000000000000000000000000000000000000000000000000000000000000000000000000000001000000000000000000000000000000000000000000000000000000000000000000000000000000000000000000000000000000000000000000000000000000000000000000000000000000000000000000000000000000000000000000000001000000000000000000000000000000000000000000000000000000000000000000000000000000000000000000000000000000000000000000000000000000000000000000000000000000000000000000000000000000000000000000000001000000000000000000000000000000000000000000000000000000000000000077a076fe6289db36de2e23fe0529137181407a3e070e43b2cd0aac7d1186d68d5a50a071d09e380f369100949febd834c3326fe2db4b71bc3c7283c72579553d936fa3","chainId":42}, receipt={"to":"0x68D936Cb4723BdD38C488FD50514803f96789d2D","from":"0xB485C8ba37A258B57d3ef24E51178A6b307C96EB","contractAddress":null,"transactionIndex":2,"gasUsed":{"type":"BigNumber","hex":"0x8c76"},"logsBloom":"0x00000000000000000000000000000000000000000000000000000000000000000000000000000000000000000000000000000000000000000000000000000000000000000000000000000000000000000000000000000000000000000000000000000000000000000000000000000000000000000000000000000000000000000000000000000000000000000000000000000000000000000000000000000000000000000000000000000000000000000000000000000000000000000000000000000000000000000000000000000000000000000000000000000000000000000000000000000000000000000000000000000000000000000000000000000000","blockHash":"0x9f909c5c6558b94703e9f47028b57fe3b2d807c42d04505b3932472890b1e1c3","transactionHash":"0x0734a51a048d35f6444fe9c190bcf205cb8d2ee216153e709465ca395efef3b7","logs":[],"blockNumber":28095825,"confirmations":2,"cumulativeGasUsed":{"type":"BigNumber","hex":"0x0652cf"},"effectiveGasPrice":{"type":"BigNumber","hex":"0xb2d05e00"},"status":0,"type":0,"byzantium":true}, code=CALL_EXCEPTION, version=providers/5.4.5)
    at Logger.makeError (D:\Projects\Debridge\debridge-contracts-v1\node_modules\@ethersproject\logger\src.ts\index.ts:225:28)
    at Logger.throwError (D:\Projects\Debridge\debridge-contracts-v1\node_modules\@ethersproject\logger\src.ts\index.ts:237:20)
    at EthersProviderWrapper.<anonymous> (D:\Projects\Debridge\debridge-contracts-v1\node_modules\@ethersproject\providers\src.ts\base-provider.ts:1198:24)
    at step (D:\Projects\Debridge\debridge-contracts-v1\node_modules\@ethersproject\providers\lib\base-provider.js:48:23)
    at Object.next (D:\Projects\Debridge\debridge-contracts-v1\node_modules\@ethersproject\providers\lib\base-provider.js:29:53)
    at fulfilled (D:\Projects\Debridge\debridge-contracts-v1\node_modules\@ethersproject\providers\lib\base-provider.js:20:58)
    at DeploymentsManager.executeDeployScripts (D:\Projects\Debridge\debridge-contracts-v1\node_modules\hardhat-deploy\src\DeploymentsManager.ts:1076:19)
    at DeploymentsManager.runDeploy (D:\Projects\Debridge\debridge-contracts-v1\node_modules\hardhat-deploy\src\DeploymentsManager.ts:906:5)
    at Environment._runTaskDefinition (D:\Projects\Debridge\debridge-contracts-v1\node_modules\hardhat\src\internal\core\runtime-environment.ts:    at Environment.run (D:\Projects\Debridge\debridge-contracts-v1\node_modules\hardhat\src\internal\core\runtime-environment.ts:129:14)
    at SimpleTaskDefinition.action (D:\Projects\Debridge\debridge-contracts-v1\node_modules\hardhat-deploy\src\index.ts:544:32)
    at Environment._runTaskDefinition (D:\Projects\Debridge\debridge-contracts-v1\node_modules\hardhat\src\internal\core\runtime-environment.ts:217:14)
    at Environment.run (D:\Projects\Debridge\debridge-contracts-v1\node_modules\hardhat\src\internal\core\runtime-environment.ts:129:14)
    at SimpleTaskDefinition.action (D:\Projects\Debridge\debridge-contracts-v1\node_modules\hardhat-deploy\src\index.ts:628:5)
    at Environment._runTaskDefinition (D:\Projects\Debridge\debridge-contracts-v1\node_modules\hardhat\src\internal\core\runtime-environment.ts:    at Environment.run (D:\Projects\Debridge\debridge-contracts-v1\node_modules\hardhat\src\internal\core\runtime-environment.ts:129:14)
PS D:\Projects\Debridge\debridge-contracts-v1>













PS D:\Projects\Debridge\debridge-contracts-v1>
PS D:\Projects\Debridge\debridge-contracts-v1> npx hardhat deploy --tags 12_set_new_weth  --network kovan
Nothing to compile
********************************************************************************
        Start upgrade deBridgeGate weth to new address {}
        from DEPLOYER 0xB485C8ba37A258B57d3ef24E51178A6b307C96EB
********************************************************************************
updateChainSupport
[ 97, 256, 421611, 80001 ]
[
  { fixedNativeFee: '0', transferFeeBps: '0', isSupported: true },
  { fixedNativeFee: '0', transferFeeBps: '0', isSupported: true },
  { fixedNativeFee: '0', transferFeeBps: '0', isSupported: true },
  { fixedNativeFee: '0', transferFeeBps: '0', isSupported: true }
]
Waiting 1 block confirmations for tx 0x2405d81c42a32123bc36db01df5fcfc585a36a741907473b9e2e0ef51ed03146 ...
deployInitParams.supportedChains:  [ 97, 256, 421611, 80001 ]
deployInitParams.fixedNativeFee:  [
  '10000000000000000',
  '10000000000000000',
  '10000000000000000',
  '10000000000000000'
]
Waiting 1 block confirmations for tx 0x40aca15bfa76c43be6415378b55b36720dd7e2df413e5563a20de5496db3dbee ...
updateGlobalFeeTx: 0x40aca15bfa76c43be6415378b55b36720dd7e2df413e5563a20de5496db3dbee
PS D:\Projects\Debridge\debridge-contracts-v1>




==========================================================
UPDATE VALIDATORS
==========================================================

PS D:\Projects\Debridge\debridge-contracts-v1> npx hardhat deploy --tags 14_add_validators  --network kovan
Nothing to compile
********************************************************************************
        Start add validators
        from DEPLOYER 0xB485C8ba37A258B57d3ef24E51178A6b307C96EB
********************************************************************************
new validators  11: 0x185f65aee9609804de01a02b25655b02f57e8f19,0x576ab9fbc66fab714e3bd376f1d07ff9b7523cc9,0xd3e98dc77eda4f821a7f5dc1f779b92a3bc9435f,0x9ae654858b3089535a8aa028ef663f8b218d8796,0xb64a5f7018a701a52f0c41e3a564830c7a430064,0x9bf9a55c6bd75bf38124ea9676fcb226d4fc16fd,0x1e69be715025e6bb6d8d651674ffc39cc85fb94f,0xb92958ae539f32e2d03d08d27dfa93104ac9466b,0x4da594b739611574663aea3edddc428e00c48fe1,0x3491a1d6653ca366df83a71b9b9922b5a164118c,0x36df730f53f287f4831d25e29240de6bdb840ab5
found validator in contract: 0x9ae654858b3089535a8aa028ef663f8b218d8796
found validator in contract: 0xb64a5f7018a701a52f0c41e3a564830c7a430064
found validator in contract: 0x4da594b739611574663aea3edddc428e00c48fe1
found validator in contract: 0xb92958ae539f32e2d03d08d27dfa93104ac9466b
found validator in contract: 0xd3e98dc77eda4f821a7f5dc1f779b92a3bc9435f
existValidators: 0x9ae654858b3089535a8aa028ef663f8b218d8796,0xb64a5f7018a701a52f0c41e3a564830c7a430064,0x4da594b739611574663aea3edddc428e00c48fe1,0xb92958ae539f32e2d03d08d27dfa93104ac9466b,0xd3e98dc77eda4f821a7f5dc1f779b92a3bc9435f
validatorsForAdd: 6: 0x185f65aee9609804de01a02b25655b02f57e8f19,0x576ab9fbc66fab714e3bd376f1d07ff9b7523cc9,0x9bf9a55c6bd75bf38124ea9676fcb226d4fc16fd,0x1e69be715025e6bb6d8d651674ffc39cc85fb94f,0x3491a1d6653ca366df83a71b9b9922b5a164118c,0x36df730f53f287f4831d25e29240de6bdb840ab5
newMinConfirmation: 6
Waiting 1 block confirmations for tx 0x0457fd6126094e7429d04d290604286a5f4d0a65c8c701a6ce87eb8b36c3569a ...
setMinConfirmationsTx : 0x0457fd6126094e7429d04d290604286a5f4d0a65c8c701a6ce87eb8b36c3569a
Waiting 1 block confirmations for tx 0x71cc838fb1bf3b5c081b6ec9cdf09c80ffd84d7648690b0a821bf2f6543f2362 ...
addOraclesTx : 0x71cc838fb1bf3b5c081b6ec9cdf09c80ffd84d7648690b0a821bf2f6543f2362
after update minConfirmations: 6
found validator in contract: 0x9ae654858b3089535a8aa028ef663f8b218d8796
found validator in contract: 0xb64a5f7018a701a52f0c41e3a564830c7a430064
found validator in contract: 0x4da594b739611574663aea3edddc428e00c48fe1
found validator in contract: 0xb92958ae539f32e2d03d08d27dfa93104ac9466b
found validator in contract: 0xd3e98dc77eda4f821a7f5dc1f779b92a3bc9435f
found validator in contract: 0x185f65aee9609804de01a02b25655b02f57e8f19
found validator in contract: 0x576ab9fbc66fab714e3bd376f1d07ff9b7523cc9
found validator in contract: 0x9bf9a55c6bd75bf38124ea9676fcb226d4fc16fd
found validator in contract: 0x1e69be715025e6bb6d8d651674ffc39cc85fb94f
found validator in contract: 0x3491a1d6653ca366df83a71b9b9922b5a164118c
found validator in contract: 0x36df730f53f287f4831d25e29240de6bdb840ab5
PS D:\Projects\Debridge\debridge-contracts-v1>



PS D:\Projects\Debridge\debridge-contracts-v1> npx hardhat deploy --tags 11_batchClaimer --network kovan
Nothing to compile
********************************************************************************
        Start deploy batch claimer
        from DEPLOYER 0x3B38786685c4Fd6bC3E685086fC7f086BC254864
********************************************************************************

*** Deploying proxy for Claimer ***
        Signer:  0x3B38786685c4Fd6bC3E685086fC7f086BC254864
        Args:  [ '0x68d936cb4723bdd38c488fd50514803f96789d2d' ]
        reuseProxy:  true
        Found deployed proxies:  0
        No deployed proxies found, deploying a new one
Waiting 1 block confirmations for tx 0x0ec833f19daa2a35a77d536091f9b980293f2f1886bbdf5e3cee64841cee0530 ...
        Implementation address: 0x4674225DE00C82005eAF77a29f3B5584b4CB8D5A
        New proxy deployed:  0xb1EB9869c8f3b50A98d960A5512D2BF0fAA56C32